{
  "_format": "hh-sol-artifact-1",
  "contractName": "SupplyChain",
  "sourceName": "src/contracts/SupplyChain.sol",
  "abi": [
    {
      "anonymous": false,
      "inputs": [
        {
          "indexed": false,
          "internalType": "uint256",
          "name": "productId",
          "type": "uint256"
        },
        {
          "indexed": false,
          "internalType": "string",
          "name": "name",
          "type": "string"
        },
        {
          "indexed": false,
          "internalType": "uint256",
          "name": "price",
          "type": "uint256"
        }
      ],
      "name": "ProductManufactured",
      "type": "event"
    },
    {
      "anonymous": false,
      "inputs": [
        {
          "indexed": false,
          "internalType": "uint256",
          "name": "productId",
          "type": "uint256"
        }
      ],
      "name": "ProductPacked",
      "type": "event"
    },
    {
      "anonymous": false,
      "inputs": [
        {
          "indexed": false,
          "internalType": "uint256",
          "name": "productId",
          "type": "uint256"
        }
      ],
      "name": "ProductReceived",
      "type": "event"
    },
    {
      "anonymous": false,
      "inputs": [
        {
          "indexed": false,
          "internalType": "uint256",
          "name": "productId",
          "type": "uint256"
        }
      ],
      "name": "ProductShipped",
      "type": "event"
    },
    {
      "anonymous": false,
      "inputs": [
        {
          "indexed": false,
          "internalType": "uint256",
          "name": "productId",
          "type": "uint256"
        }
      ],
      "name": "ProductSold",
      "type": "event"
    },
    {
      "inputs": [],
      "name": "getAllProducts",
      "outputs": [
        {
          "components": [
            {
              "internalType": "uint256",
              "name": "productId",
              "type": "uint256"
            },
            {
              "internalType": "string",
              "name": "name",
              "type": "string"
            },
            {
              "internalType": "uint256",
              "name": "price",
              "type": "uint256"
            },
            {
              "internalType": "enum SupplyChain.State",
              "name": "state",
              "type": "uint8"
            },
            {
              "internalType": "address",
              "name": "manufacturer",
              "type": "address"
            },
            {
              "internalType": "address",
              "name": "packager",
              "type": "address"
            },
            {
              "internalType": "address",
              "name": "distributor",
              "type": "address"
            },
            {
              "internalType": "address",
              "name": "retailer",
              "type": "address"
            },
            {
              "internalType": "address",
              "name": "consumer",
              "type": "address"
            }
          ],
          "internalType": "struct SupplyChain.Product[]",
          "name": "",
          "type": "tuple[]"
        }
      ],
      "stateMutability": "view",
      "type": "function"
    },
    {
      "inputs": [],
      "name": "getProductCount",
      "outputs": [
        {
          "internalType": "uint256",
          "name": "",
          "type": "uint256"
        }
      ],
      "stateMutability": "view",
      "type": "function"
    },
    {
      "inputs": [
        {
          "internalType": "uint256",
          "name": "_productId",
          "type": "uint256"
        }
      ],
      "name": "getProductDetails",
      "outputs": [
        {
          "components": [
            {
              "internalType": "uint256",
              "name": "productId",
              "type": "uint256"
            },
            {
              "internalType": "string",
              "name": "name",
              "type": "string"
            },
            {
              "internalType": "uint256",
              "name": "price",
              "type": "uint256"
            },
            {
              "internalType": "enum SupplyChain.State",
              "name": "state",
              "type": "uint8"
            },
            {
              "internalType": "address",
              "name": "manufacturer",
              "type": "address"
            },
            {
              "internalType": "address",
              "name": "packager",
              "type": "address"
            },
            {
              "internalType": "address",
              "name": "distributor",
              "type": "address"
            },
            {
              "internalType": "address",
              "name": "retailer",
              "type": "address"
            },
            {
              "internalType": "address",
              "name": "consumer",
              "type": "address"
            }
          ],
          "internalType": "struct SupplyChain.Product",
          "name": "",
          "type": "tuple"
        }
      ],
      "stateMutability": "view",
      "type": "function"
    },
    {
      "inputs": [
        {
          "internalType": "string",
          "name": "_name",
          "type": "string"
        },
        {
          "internalType": "uint256",
          "name": "_price",
          "type": "uint256"
        }
      ],
      "name": "manufactureProduct",
      "outputs": [],
      "stateMutability": "nonpayable",
      "type": "function"
    },
    {
      "inputs": [
        {
          "internalType": "uint256",
          "name": "_productId",
          "type": "uint256"
        }
      ],
      "name": "packProduct",
      "outputs": [],
      "stateMutability": "nonpayable",
      "type": "function"
    },
    {
      "inputs": [],
      "name": "productCount",
      "outputs": [
        {
          "internalType": "uint256",
          "name": "",
          "type": "uint256"
        }
      ],
      "stateMutability": "view",
      "type": "function"
    },
    {
      "inputs": [
        {
          "internalType": "uint256",
          "name": "",
          "type": "uint256"
        }
      ],
      "name": "products",
      "outputs": [
        {
          "internalType": "uint256",
          "name": "productId",
          "type": "uint256"
        },
        {
          "internalType": "string",
          "name": "name",
          "type": "string"
        },
        {
          "internalType": "uint256",
          "name": "price",
          "type": "uint256"
        },
        {
          "internalType": "enum SupplyChain.State",
          "name": "state",
          "type": "uint8"
        },
        {
          "internalType": "address",
          "name": "manufacturer",
          "type": "address"
        },
        {
          "internalType": "address",
          "name": "packager",
          "type": "address"
        },
        {
          "internalType": "address",
          "name": "distributor",
          "type": "address"
        },
        {
          "internalType": "address",
          "name": "retailer",
          "type": "address"
        },
        {
          "internalType": "address",
          "name": "consumer",
          "type": "address"
        }
      ],
      "stateMutability": "view",
      "type": "function"
    },
    {
      "inputs": [
        {
          "internalType": "uint256",
          "name": "_productId",
          "type": "uint256"
        }
      ],
      "name": "receiveProduct",
      "outputs": [],
      "stateMutability": "nonpayable",
      "type": "function"
    },
    {
      "inputs": [
        {
          "internalType": "uint256",
          "name": "_productId",
          "type": "uint256"
        }
      ],
      "name": "sellProduct",
      "outputs": [],
      "stateMutability": "nonpayable",
      "type": "function"
    },
    {
      "inputs": [
        {
          "internalType": "uint256",
          "name": "_productId",
          "type": "uint256"
        },
        {
          "internalType": "address",
          "name": "_distributor",
          "type": "address"
        }
      ],
      "name": "shipProduct",
      "outputs": [],
      "stateMutability": "nonpayable",
      "type": "function"
    }
  ],
  "bytecode": "0x608060405234801561001057600080fd5b50611239806100206000396000f3fe608060405234801561001057600080fd5b506004361061009e5760003560e01c80636813b53b116100665780636813b53b1461010e5780637acc0b201461012e5780637efccd1114610156578063b6a87e1014610169578063e0f6ef871461017c57600080fd5b806302ee3a52146100a35780630e8336dd146100c157806329d78328146100d6578063492deb15146100e95780634a348da9146100fc575b600080fd5b6100ab610185565b6040516100b89190610df9565b60405180910390f35b6100d46100cf366004610e5b565b610368565b005b6100d46100e4366004610e97565b61049f565b6100d46100f7366004610e97565b6105b6565b6001545b6040519081526020016100b8565b61012161011c366004610e97565b6106d2565b6040516100b89190610eb0565b61014161013c366004610e97565b61081c565b6040516100b899989796959493929190610eca565b6100d4610164366004610f4d565b610905565b6100d4610177366004610e97565b610b37565b61010060015481565b6060600060015467ffffffffffffffff8111156101a4576101a4610f37565b6040519080825280602002602001820160405280156101dd57816020015b6101ca610c5c565b8152602001906001900390816101c25790505b50905060015b600154811161036257600081815260208181526040918290208251610120810190935280548352600181018054919284019161021e90611002565b80601f016020809104026020016040519081016040528092919081815260200182805461024a90611002565b80156102975780601f1061026c57610100808354040283529160200191610297565b820191906000526020600020905b81548152906001019060200180831161027a57829003601f168201915b505050918352505060028201546020820152600382015460409091019060ff1660048111156102c8576102c8610cff565b60048111156102d9576102d9610cff565b815260038201546001600160a01b036101009091048116602083015260048301548116604083015260058301548116606083015260068301548116608083015260079092015490911660a0909101528261033460018461104c565b8151811061034457610344611065565b6020026020010181905250808061035a9061107b565b9150506101e3565b50919050565b8160018060008381526020819052604090206003015460ff16600481111561039257610392610cff565b146103b85760405162461bcd60e51b81526004016103af90611094565b60405180910390fd5b6000848152602081905260409020600401546001600160a01b0316331461042c5760405162461bcd60e51b815260206004820152602260248201527f4f6e6c79207061636b616765722063616e2073686970207468652070726f647560448201526118dd60f21b60648201526084016103af565b6000848152602081815260409182902060038101805460ff1916600217905560050180546001600160a01b0387166001600160a01b031990911617905590518581527ff91b0b39fbb56d78224050bb7e56777ee7aca5ed18ada91cc9c21677db7f9abe910160405180910390a150505050565b8060028060008381526020819052604090206003015460ff1660048111156104c9576104c9610cff565b146104e65760405162461bcd60e51b81526004016103af90611094565b6000838152602081905260409020600501546001600160a01b031633146105605760405162461bcd60e51b815260206004820152602860248201527f4f6e6c79206469737472696275746f722063616e207265636569766520746865604482015267081c1c9bd91d58dd60c21b60648201526084016103af565b600083815260208181526040918290206003908101805460ff1916909117905590518481527f14dea969eedd35dc22a00dc5d0c573ad6305c40d63100de02135b0226eb4c8aa91015b60405180910390a1505050565b8060038060008381526020819052604090206003015460ff1660048111156105e0576105e0610cff565b146105fd5760405162461bcd60e51b81526004016103af90611094565b6000838152602081905260409020600601546001600160a01b031633146106715760405162461bcd60e51b815260206004820152602260248201527f4f6e6c792072657461696c65722063616e2073656c6c207468652070726f647560448201526118dd60f21b60648201526084016103af565b6000838152602081815260409182902060038101805460ff191660041790556007018054336001600160a01b031990911617905590518481527f3473c2d98208cbe519d24c7336288e8321fc3849abaca8e91d4aa7bee561cc4f91016105a9565b6106da610c5c565b600082815260208181526040918290208251610120810190935280548352600181018054919284019161070c90611002565b80601f016020809104026020016040519081016040528092919081815260200182805461073890611002565b80156107855780601f1061075a57610100808354040283529160200191610785565b820191906000526020600020905b81548152906001019060200180831161076857829003601f168201915b505050918352505060028201546020820152600382015460409091019060ff1660048111156107b6576107b6610cff565b60048111156107c7576107c7610cff565b815260038201546001600160a01b036101009091048116602083015260048301548116604083015260058301548116606083015260068301548116608083015260079092015490911660a09091015292915050565b6000602081905290815260409020805460018201805491929161083e90611002565b80601f016020809104026020016040519081016040528092919081815260200182805461086a90611002565b80156108b75780601f1061088c576101008083540402835291602001916108b7565b820191906000526020600020905b81548152906001019060200180831161089a57829003601f168201915b505050600284015460038501546004860154600587015460068801546007909801549697939660ff841696506001600160a01b03610100909404841695509183169390831692908116911689565b60008251116109565760405162461bcd60e51b815260206004820152601c60248201527f50726f64756374206e616d652063616e6e6f7420626520656d7074790000000060448201526064016103af565b600081116109b65760405162461bcd60e51b815260206004820152602760248201527f50726f64756374207072696365206d7573742062652067726561746572207468604482015266616e207a65726f60c81b60648201526084016103af565b600180549060006109c68361107b565b9091555050604080516101208101825260018054808352602080840187815284860187905260006060860181905233608087015260a0860181905260c0860181905260e0860181905261010086018190529283529082905293902082518155925191929190820190610a38908261111a565b5060408201516002820155606082015160038201805460ff19166001836004811115610a6657610a66610cff565b02179055506080820151600382018054610100600160a81b0319166101006001600160a01b0393841681029190911790915560a08401516004840180546001600160a01b031990811692851692909217905560c0850151600585018054831691851691909117905560e085015160068501805483169185169190911790559301516007909201805490931691161790556001546040517fa8f92639f9dfbd5e52d84a62252ac197bb40e167a38735462462cd4d0b1730d991610b2b91859085906111da565b60405180910390a15050565b8060008060008381526020819052604090206003015460ff166004811115610b6157610b61610cff565b14610b7e5760405162461bcd60e51b81526004016103af90611094565b60008381526020819052604090206003015461010090046001600160a01b03163314610bfb5760405162461bcd60e51b815260206004820152602660248201527f4f6e6c79206d616e7566616374757265722063616e207061636b2074686520706044820152651c9bd91d58dd60d21b60648201526084016103af565b6000838152602081815260409182902060038101805460ff191660011790556004018054336001600160a01b031990911617905590518481527f61a29ed91f9e377f1f09d0a22b28ac80d4491b7871782fd90c77d91fbb7f4fe891016105a9565b60405180610120016040528060008152602001606081526020016000815260200160006004811115610c9057610c90610cff565b815260006020820181905260408201819052606082018190526080820181905260a09091015290565b6000815180845260005b81811015610cdf57602081850181015186830182015201610cc3565b506000602082860101526020601f19601f83011685010191505092915050565b634e487b7160e01b600052602160045260246000fd5b60058110610d3357634e487b7160e01b600052602160045260246000fd5b9052565b6000610120825184526020830151816020860152610d5782860182610cb9565b915050604083015160408501526060830151610d766060860182610d15565b506080838101516001600160a01b03169085015260a08381015190610da5908601826001600160a01b03169052565b5060c0830151610dc060c08601826001600160a01b03169052565b5060e0830151610ddb60e08601826001600160a01b03169052565b50610100928301516001600160a01b03169390920192909252919050565b6000602080830181845280855180835260408601915060408160051b870101925083870160005b82811015610e4e57603f19888603018452610e3c858351610d37565b94509285019290850190600101610e20565b5092979650505050505050565b60008060408385031215610e6e57600080fd5b8235915060208301356001600160a01b0381168114610e8c57600080fd5b809150509250929050565b600060208284031215610ea957600080fd5b5035919050565b602081526000610ec36020830184610d37565b9392505050565b60006101208b8352806020840152610ee48184018c610cb9565b915050886040830152610efa6060830189610d15565b6001600160a01b03968716608083015294861660a082015292851660c084015290841660e083015290921661010090920191909152949350505050565b634e487b7160e01b600052604160045260246000fd5b60008060408385031215610f6057600080fd5b823567ffffffffffffffff80821115610f7857600080fd5b818501915085601f830112610f8c57600080fd5b813581811115610f9e57610f9e610f37565b604051601f8201601f19908116603f01168101908382118183101715610fc657610fc6610f37565b81604052828152886020848701011115610fdf57600080fd5b826020860160208301376000602093820184015298969091013596505050505050565b600181811c9082168061101657607f821691505b60208210810361036257634e487b7160e01b600052602260045260246000fd5b634e487b7160e01b600052601160045260246000fd5b8181038181111561105f5761105f611036565b92915050565b634e487b7160e01b600052603260045260246000fd5b60006001820161108d5761108d611036565b5060010190565b60208082526018908201527f496e76616c6964207374617465207472616e736974696f6e0000000000000000604082015260600190565b601f82111561111557600081815260208120601f850160051c810160208610156110f25750805b601f850160051c820191505b81811015611111578281556001016110fe565b5050505b505050565b815167ffffffffffffffff81111561113457611134610f37565b611148816111428454611002565b846110cb565b602080601f83116001811461117d57600084156111655750858301515b600019600386901b1c1916600185901b178555611111565b600085815260208120601f198616915b828110156111ac5788860151825594840194600190910190840161118d565b50858210156111ca5787850151600019600388901b60f8161c191681555b5050505050600190811b01905550565b8381526060602082015260006111f36060830185610cb9565b905082604083015294935050505056fea2646970667358221220ef5317f5e2a055732c201dd8338848f15fd554ce1a075e315d1c999bdbc3541e64736f6c63430008120033",
  "linkReferences": {},
  "deployedLinkReferences": {}
}